{
  "contractName": "SupplyChain",
  "abi": [
    {
      "inputs": [],
      "payable": true,
      "stateMutability": "payable",
      "type": "constructor"
    },
    {
      "anonymous": false,
      "inputs": [
        {
          "indexed": false,
          "internalType": "uint256",
          "name": "uid",
          "type": "uint256"
        }
      ],
      "name": "Manufactured",
      "type": "event"
    },
    {
      "anonymous": false,
      "inputs": [
        {
          "indexed": true,
          "internalType": "address",
          "name": "_account",
          "type": "address"
        }
      ],
      "name": "ManufacturerAdded",
      "type": "event"
    },
    {
      "anonymous": false,
      "inputs": [
        {
          "indexed": true,
          "internalType": "uint256",
          "name": "uid",
          "type": "uint256"
        }
      ],
      "name": "PurchasedByCustomer",
      "type": "event"
    },
    {
      "anonymous": false,
      "inputs": [
        {
          "indexed": false,
          "internalType": "uint256",
          "name": "uid",
          "type": "uint256"
        }
      ],
      "name": "PurchasedByThirdParty",
      "type": "event"
    },
    {
      "anonymous": false,
      "inputs": [
        {
          "indexed": false,
          "internalType": "uint256",
          "name": "uid",
          "type": "uint256"
        }
      ],
      "name": "ReceivedByCustomer",
      "type": "event"
    },
    {
      "anonymous": false,
      "inputs": [
        {
          "indexed": false,
          "internalType": "uint256",
          "name": "uid",
          "type": "uint256"
        }
      ],
      "name": "ReceivedByDeliveryHub",
      "type": "event"
    },
    {
      "anonymous": false,
      "inputs": [
        {
          "indexed": false,
          "internalType": "uint256",
          "name": "uid",
          "type": "uint256"
        }
      ],
      "name": "ReceivedByThirdParty",
      "type": "event"
    },
    {
      "anonymous": false,
      "inputs": [
        {
          "indexed": false,
          "internalType": "uint256",
          "name": "uid",
          "type": "uint256"
        }
      ],
      "name": "ShippedByDeliveryHub",
      "type": "event"
    },
    {
      "anonymous": false,
      "inputs": [
        {
          "indexed": false,
          "internalType": "uint256",
          "name": "uid",
          "type": "uint256"
        }
      ],
      "name": "ShippedByManufacturer",
      "type": "event"
    },
    {
      "anonymous": false,
      "inputs": [
        {
          "indexed": false,
          "internalType": "uint256",
          "name": "uid",
          "type": "uint256"
        }
      ],
      "name": "ShippedByThirdParty",
      "type": "event"
    },
    {
      "constant": true,
      "inputs": [],
      "name": "uid",
      "outputs": [
        {
          "internalType": "uint256",
          "name": "",
          "type": "uint256"
        }
      ],
      "payable": false,
      "stateMutability": "view",
      "type": "function"
    },
    {
      "constant": true,
      "inputs": [
        {
          "internalType": "address",
          "name": "_account",
          "type": "address"
        }
      ],
      "name": "hasManufacturerRole",
      "outputs": [
        {
          "internalType": "bool",
          "name": "",
          "type": "bool"
        }
      ],
      "payable": false,
      "stateMutability": "view",
      "type": "function"
    },
    {
      "constant": false,
      "inputs": [
        {
          "internalType": "address",
          "name": "_account",
          "type": "address"
        }
      ],
      "name": "addManufacturerRole",
      "outputs": [],
      "payable": false,
      "stateMutability": "nonpayable",
      "type": "function"
    },
    {
      "constant": true,
      "inputs": [
        {
          "internalType": "address",
          "name": "_account",
          "type": "address"
        }
      ],
      "name": "hasThirdPartyRole",
      "outputs": [
        {
          "internalType": "bool",
          "name": "",
          "type": "bool"
        }
      ],
      "payable": false,
      "stateMutability": "view",
      "type": "function"
    },
    {
      "constant": false,
      "inputs": [
        {
          "internalType": "address",
          "name": "_account",
          "type": "address"
        }
      ],
      "name": "addThirdPartyRole",
      "outputs": [],
      "payable": false,
      "stateMutability": "nonpayable",
      "type": "function"
    },
    {
      "constant": true,
      "inputs": [
        {
          "internalType": "address",
          "name": "_account",
          "type": "address"
        }
      ],
      "name": "hasDeliveryHubRole",
      "outputs": [
        {
          "internalType": "bool",
          "name": "",
          "type": "bool"
        }
      ],
      "payable": false,
      "stateMutability": "view",
      "type": "function"
    },
    {
      "constant": false,
      "inputs": [
        {
          "internalType": "address",
          "name": "_account",
          "type": "address"
        }
      ],
      "name": "addDeliveryHubRole",
      "outputs": [],
      "payable": false,
      "stateMutability": "nonpayable",
      "type": "function"
    },
    {
      "constant": true,
      "inputs": [
        {
          "internalType": "address",
          "name": "_account",
          "type": "address"
        }
      ],
      "name": "hasCustomerRole",
      "outputs": [
        {
          "internalType": "bool",
          "name": "",
          "type": "bool"
        }
      ],
      "payable": false,
      "stateMutability": "view",
      "type": "function"
    },
    {
      "constant": false,
      "inputs": [
        {
          "internalType": "address",
          "name": "_account",
          "type": "address"
        }
      ],
      "name": "addCustomerRole",
      "outputs": [],
      "payable": false,
      "stateMutability": "nonpayable",
      "type": "function"
    },
    {
      "constant": false,
      "inputs": [
        {
          "internalType": "string",
          "name": "manufacturerName",
          "type": "string"
        },
        {
          "internalType": "string",
          "name": "manufacturerDetails",
          "type": "string"
        },
        {
          "internalType": "string",
          "name": "manufacturerLongitude",
          "type": "string"
        },
        {
          "internalType": "string",
          "name": "manufacturerLatitude",
          "type": "string"
        },
        {
          "internalType": "string",
          "name": "productName",
          "type": "string"
        },
        {
          "internalType": "uint256",
          "name": "productCode",
          "type": "uint256"
        },
        {
          "internalType": "uint256",
          "name": "productPrice",
          "type": "uint256"
        },
        {
          "internalType": "string",
          "name": "productCategory",
          "type": "string"
        }
      ],
      "name": "manufactureProduct",
      "outputs": [],
      "payable": false,
      "stateMutability": "nonpayable",
      "type": "function"
    },
    {
      "constant": false,
      "inputs": [
        {
          "internalType": "uint256",
          "name": "_uid",
          "type": "uint256"
        }
      ],
      "name": "purchaseByThirdParty",
      "outputs": [],
      "payable": false,
      "stateMutability": "nonpayable",
      "type": "function"
    },
    {
      "constant": false,
      "inputs": [
        {
          "internalType": "uint256",
          "name": "_uid",
          "type": "uint256"
        }
      ],
      "name": "shipToThirdParty",
      "outputs": [],
      "payable": false,
      "stateMutability": "nonpayable",
      "type": "function"
    },
    {
      "constant": false,
      "inputs": [
        {
          "internalType": "uint256",
          "name": "_uid",
          "type": "uint256"
        },
        {
          "internalType": "string",
          "name": "thirdPartyLongitude",
          "type": "string"
        },
        {
          "internalType": "string",
          "name": "thirdPartyLatitude",
          "type": "string"
        }
      ],
      "name": "receiveByThirdParty",
      "outputs": [],
      "payable": false,
      "stateMutability": "nonpayable",
      "type": "function"
    },
    {
      "constant": false,
      "inputs": [
        {
          "internalType": "uint256",
          "name": "_uid",
          "type": "uint256"
        }
      ],
      "name": "purchaseByCustomer",
      "outputs": [],
      "payable": false,
      "stateMutability": "nonpayable",
      "type": "function"
    },
    {
      "constant": false,
      "inputs": [
        {
          "internalType": "uint256",
          "name": "_uid",
          "type": "uint256"
        }
      ],
      "name": "shipByThirdParty",
      "outputs": [],
      "payable": false,
      "stateMutability": "nonpayable",
      "type": "function"
    },
    {
      "constant": false,
      "inputs": [
        {
          "internalType": "uint256",
          "name": "_uid",
          "type": "uint256"
        },
        {
          "internalType": "string",
          "name": "deliveryHubLongitude",
          "type": "string"
        },
        {
          "internalType": "string",
          "name": "deliveryHubLatitude",
          "type": "string"
        }
      ],
      "name": "receiveByDeliveryHub",
      "outputs": [],
      "payable": false,
      "stateMutability": "nonpayable",
      "type": "function"
    },
    {
      "constant": false,
      "inputs": [
        {
          "internalType": "uint256",
          "name": "_uid",
          "type": "uint256"
        }
      ],
      "name": "shipByDeliveryHub",
      "outputs": [],
      "payable": false,
      "stateMutability": "nonpayable",
      "type": "function"
    },
    {
      "constant": false,
      "inputs": [
        {
          "internalType": "uint256",
          "name": "_uid",
          "type": "uint256"
        }
      ],
      "name": "receiveByCustomer",
      "outputs": [],
      "payable": false,
      "stateMutability": "nonpayable",
      "type": "function"
    },
    {
      "constant": true,
      "inputs": [
        {
          "internalType": "uint256",
          "name": "_uid",
          "type": "uint256"
        },
        {
          "internalType": "string",
          "name": "_type",
          "type": "string"
        },
        {
          "internalType": "uint256",
          "name": "i",
          "type": "uint256"
        }
      ],
      "name": "fetchProductPart1",
      "outputs": [
        {
          "internalType": "uint256",
          "name": "",
          "type": "uint256"
        },
        {
          "internalType": "uint256",
          "name": "",
          "type": "uint256"
        },
        {
          "internalType": "address",
          "name": "",
          "type": "address"
        },
        {
          "internalType": "address",
          "name": "",
          "type": "address"
        },
        {
          "internalType": "string",
          "name": "",
          "type": "string"
        },
        {
          "internalType": "string",
          "name": "",
          "type": "string"
        },
        {
          "internalType": "string",
          "name": "",
          "type": "string"
        },
        {
          "internalType": "string",
          "name": "",
          "type": "string"
        }
      ],
      "payable": false,
      "stateMutability": "view",
      "type": "function"
    },
    {
      "constant": true,
      "inputs": [
        {
          "internalType": "uint256",
          "name": "_uid",
          "type": "uint256"
        },
        {
          "internalType": "string",
          "name": "_type",
          "type": "string"
        },
        {
          "internalType": "uint256",
          "name": "i",
          "type": "uint256"
        }
      ],
      "name": "fetchProductPart2",
      "outputs": [
        {
          "internalType": "uint256",
          "name": "",
          "type": "uint256"
        },
        {
          "internalType": "string",
          "name": "",
          "type": "string"
        },
        {
          "internalType": "uint256",
          "name": "",
          "type": "uint256"
        },
        {
          "internalType": "uint256",
          "name": "",
          "type": "uint256"
        },
        {
          "internalType": "string",
          "name": "",
          "type": "string"
        },
        {
          "internalType": "enum Structure.State",
          "name": "",
          "type": "uint8"
        },
        {
          "internalType": "address",
          "name": "",
          "type": "address"
        },
        {
          "internalType": "string",
          "name": "",
          "type": "string"
        }
      ],
      "payable": false,
      "stateMutability": "view",
      "type": "function"
    },
    {
      "constant": true,
      "inputs": [
        {
          "internalType": "uint256",
          "name": "_uid",
          "type": "uint256"
        },
        {
          "internalType": "string",
          "name": "_type",
          "type": "string"
        },
        {
          "internalType": "uint256",
          "name": "i",
          "type": "uint256"
        }
      ],
      "name": "fetchProductPart3",
      "outputs": [
        {
          "internalType": "string",
          "name": "",
          "type": "string"
        },
        {
          "internalType": "address",
          "name": "",
          "type": "address"
        },
        {
          "internalType": "string",
          "name": "",
          "type": "string"
        },
        {
          "internalType": "string",
          "name": "",
          "type": "string"
        },
        {
          "internalType": "address",
          "name": "",
          "type": "address"
        },
        {
          "internalType": "string",
          "name": "",
          "type": "string"
        }
      ],
      "payable": false,
      "stateMutability": "view",
      "type": "function"
    },
    {
      "constant": true,
      "inputs": [],
      "name": "fetchProductCount",
      "outputs": [
        {
          "internalType": "uint256",
          "name": "",
          "type": "uint256"
        }
      ],
      "payable": false,
      "stateMutability": "view",
      "type": "function"
    },
    {
      "constant": true,
      "inputs": [
        {
          "internalType": "uint256",
          "name": "_uid",
          "type": "uint256"
        }
      ],
      "name": "fetchProductHistoryLength",
      "outputs": [
        {
          "internalType": "uint256",
          "name": "",
          "type": "uint256"
        }
      ],
      "payable": false,
      "stateMutability": "view",
      "type": "function"
    },
    {
      "constant": true,
      "inputs": [
        {
          "internalType": "uint256",
          "name": "_uid",
          "type": "uint256"
        }
      ],
      "name": "fetchProductState",
      "outputs": [
        {
          "internalType": "enum Structure.State",
          "name": "",
          "type": "uint8"
        }
      ],
      "payable": false,
      "stateMutability": "view",
      "type": "function"
    },
    {
      "constant": false,
      "inputs": [
        {
          "internalType": "string",
          "name": "tran",
          "type": "string"
        }
      ],
      "name": "setTransactionHashOnManufacture",
      "outputs": [],
      "payable": false,
      "stateMutability": "nonpayable",
      "type": "function"
    },
    {
      "constant": false,
      "inputs": [
        {
          "internalType": "uint256",
          "name": "_uid",
          "type": "uint256"
        },
        {
          "internalType": "string",
          "name": "tran",
          "type": "string"
        }
      ],
      "name": "setTransactionHash",
      "outputs": [],
      "payable": false,
      "stateMutability": "nonpayable",
      "type": "function"
    }
  ],
  "bytecode": "0x6080604052600280546001600160a01b0319163317905560018080556000556146d68061002d6000396000f3fe608060405234801561001057600080fd5b506004361061018d5760003560e01c8063786ea161116100de578063d44bebcc11610097578063ee707c1e11610071578063ee707c1e14611200578063f16791b31461121d578063f4121b6714611225578063f514ce361461124b5761018d565b8063d44bebcc146110f5578063e2f1fe141461111b578063e55128ea1461115c5761018d565b8063786ea16114610c285780638290f85914610cd35780638eee90ea14610cf957806398c9588914610e29578063b843bdee146110b2578063cd2885e0146110cf5761018d565b80635212e5101161014b5780636cf07e24116101255780636cf07e241461099d5780636f1fe8d7146109ba5780637217eb2e14610bee57806372df397e14610c0b5761018d565b80635212e510146106ba5780636000ada1146106e0578063658db497146107065761018d565b80623375b714610192578063024edf9a146104de5780630a036e25146105185780633334529e14610535578063405ba7ef14610665578063453dd4af14610694575b600080fd5b6104dc60048036036101008110156101a957600080fd5b810190602081018135600160201b8111156101c357600080fd5b8201836020820111156101d557600080fd5b803590602001918460018302840111600160201b831117156101f657600080fd5b91908080601f0160208091040260200160405190810160405280939291908181526020018383808284376000920191909152509295949360208101935035915050600160201b81111561024857600080fd5b82018360208201111561025a57600080fd5b803590602001918460018302840111600160201b8311171561027b57600080fd5b91908080601f0160208091040260200160405190810160405280939291908181526020018383808284376000920191909152509295949360208101935035915050600160201b8111156102cd57600080fd5b8201836020820111156102df57600080fd5b803590602001918460018302840111600160201b8311171561030057600080fd5b91908080601f0160208091040260200160405190810160405280939291908181526020018383808284376000920191909152509295949360208101935035915050600160201b81111561035257600080fd5b82018360208201111561036457600080fd5b803590602001918460018302840111600160201b8311171561038557600080fd5b91908080601f0160208091040260200160405190810160405280939291908181526020018383808284376000920191909152509295949360208101935035915050600160201b8111156103d757600080fd5b8201836020820111156103e957600080fd5b803590602001918460018302840111600160201b8311171561040a57600080fd5b91908080601f0160208091040260200160405190810160405280939291908181526020018383808284376000920191909152509295843595602086013595919450925060608101915060400135600160201b81111561046857600080fd5b82018360208201111561047a57600080fd5b803590602001918460018302840111600160201b8311171561049b57600080fd5b91908080601f016020809104026020016040519081016040528093929190818152602001838380828437600092019190915250929550611253945050505050565b005b610504600480360360208110156104f457600080fd5b50356001600160a01b03166117f9565b604080519115158252519081900360200190f35b6104dc6004803603602081101561052e57600080fd5b5035611834565b6104dc6004803603606081101561054b57600080fd5b81359190810190604081016020820135600160201b81111561056c57600080fd5b82018360208201111561057e57600080fd5b803590602001918460018302840111600160201b8311171561059f57600080fd5b91908080601f0160208091040260200160405190810160405280939291908181526020018383808284376000920191909152509295949360208101935035915050600160201b8111156105f157600080fd5b82018360208201111561060357600080fd5b803590602001918460018302840111600160201b8311171561062457600080fd5b91908080601f016020809104026020016040519081016040528093929190818152602001838380828437600092019190915250929550611bcc945050505050565b6106826004803603602081101561067b57600080fd5b5035611ffa565b60408051918252519081900360200190f35b6104dc600480360360208110156106aa57600080fd5b50356001600160a01b031661200c565b6104dc600480360360208110156106d057600080fd5b50356001600160a01b031661205c565b610504600480360360208110156106f657600080fd5b50356001600160a01b03166120a8565b6107b36004803603606081101561071c57600080fd5b81359190810190604081016020820135600160201b81111561073d57600080fd5b82018360208201111561074f57600080fd5b803590602001918460018302840111600160201b8311171561077057600080fd5b91908080601f01602080910402602001604051908101604052809392919081815260200183838082843760009201919091525092955050913592506120dc915050565b60405180898152602001888152602001876001600160a01b03166001600160a01b03168152602001866001600160a01b03166001600160a01b0316815260200180602001806020018060200180602001858103855289818151815260200191508051906020019080838360005b83811015610838578181015183820152602001610820565b50505050905090810190601f1680156108655780820380516001836020036101000a031916815260200191505b5085810384528851815288516020918201918a019080838360005b83811015610898578181015183820152602001610880565b50505050905090810190601f1680156108c55780820380516001836020036101000a031916815260200191505b50858103835287518152875160209182019189019080838360005b838110156108f85781810151838201526020016108e0565b50505050905090810190601f1680156109255780820380516001836020036101000a031916815260200191505b50858103825286518152865160209182019188019080838360005b83811015610958578181015183820152602001610940565b50505050905090810190601f1680156109855780820380516001836020036101000a031916815260200191505b509c5050505050505050505050505060405180910390f35b6104dc600480360360208110156109b357600080fd5b5035612477565b610a67600480360360608110156109d057600080fd5b81359190810190604081016020820135600160201b8111156109f157600080fd5b820183602082011115610a0357600080fd5b803590602001918460018302840111600160201b83111715610a2457600080fd5b91908080601f016020809104026020016040519081016040528093929190818152602001838380828437600092019190915250929550509135925061286b915050565b604051808981526020018060200188815260200187815260200180602001866008811115610a9157fe5b60ff168152602001856001600160a01b03166001600160a01b031681526020018060200184810384528b818151815260200191508051906020019080838360005b83811015610aea578181015183820152602001610ad2565b50505050905090810190601f168015610b175780820380516001836020036101000a031916815260200191505b5084810383528851815288516020918201918a019080838360005b83811015610b4a578181015183820152602001610b32565b50505050905090810190601f168015610b775780820380516001836020036101000a031916815260200191505b50848103825285518152855160209182019187019080838360005b83811015610baa578181015183820152602001610b92565b50505050905090810190601f168015610bd75780820380516001836020036101000a031916815260200191505b509b50505050505050505050505060405180910390f35b6104dc60048036036020811015610c0457600080fd5b5035612b2b565b6104dc60048036036020811015610c2157600080fd5b5035612f5e565b6104dc60048036036040811015610c3e57600080fd5b81359190810190604081016020820135600160201b811115610c5f57600080fd5b820183602082011115610c7157600080fd5b803590602001918460018302840111600160201b83111715610c9257600080fd5b91908080601f016020809104026020016040519081016040528093929190818152602001838380828437600092019190915250929550613331945050505050565b6104dc60048036036020811015610ce957600080fd5b50356001600160a01b031661337d565b6104dc60048036036060811015610d0f57600080fd5b81359190810190604081016020820135600160201b811115610d3057600080fd5b820183602082011115610d4257600080fd5b803590602001918460018302840111600160201b83111715610d6357600080fd5b91908080601f0160208091040260200160405190810160405280939291908181526020018383808284376000920191909152509295949360208101935035915050600160201b811115610db557600080fd5b820183602082011115610dc757600080fd5b803590602001918460018302840111600160201b83111715610de857600080fd5b91908080601f0160208091040260200160405190810160405280939291908181526020018383808284376000920191909152509295506133c7945050505050565b610ed660048036036060811015610e3f57600080fd5b81359190810190604081016020820135600160201b811115610e6057600080fd5b820183602082011115610e7257600080fd5b803590602001918460018302840111600160201b83111715610e9357600080fd5b91908080601f01602080910402602001604051908101604052809392919081815260200183838082843760009201919091525092955050913592506137df915050565b6040518080602001876001600160a01b03166001600160a01b031681526020018060200180602001866001600160a01b03166001600160a01b031681526020018060200185810385528b818151815260200191508051906020019080838360005b83811015610f4f578181015183820152602001610f37565b50505050905090810190601f168015610f7c5780820380516001836020036101000a031916815260200191505b5085810384528951815289516020918201918b019080838360005b83811015610faf578181015183820152602001610f97565b50505050905090810190601f168015610fdc5780820380516001836020036101000a031916815260200191505b5085810383528851815288516020918201918a019080838360005b8381101561100f578181015183820152602001610ff7565b50505050905090810190601f16801561103c5780820380516001836020036101000a031916815260200191505b50858103825286518152865160209182019188019080838360005b8381101561106f578181015183820152602001611057565b50505050905090810190601f16801561109c5780820380516001836020036101000a031916815260200191505b509a505050505050505050505060405180910390f35b6104dc600480360360208110156110c857600080fd5b5035613b66565b610504600480360360208110156110e557600080fd5b50356001600160a01b0316613f15565b6105046004803603602081101561110b57600080fd5b50356001600160a01b0316613f4e565b6111386004803603602081101561113157600080fd5b5035613f88565b6040518082600881111561114857fe5b60ff16815260200191505060405180910390f35b6104dc6004803603602081101561117257600080fd5b810190602081018135600160201b81111561118c57600080fd5b82018360208201111561119e57600080fd5b803590602001918460018302840111600160201b831117156111bf57600080fd5b91908080601f016020809104026020016040519081016040528093929190818152602001838380828437600092019190915250929550613fa7945050505050565b6104dc6004803603602081101561121657600080fd5b5035613ff4565b6106826143b3565b6104dc6004803603602081101561123b57600080fd5b50356001600160a01b03166143ba565b610682614408565b61125c336120a8565b61126557600080fd5b600054611270614477565b600154602080830191909152828252608080830180519092018c9052815160409081018c905282516060018b9052825190910189905281514260a090910152339083018190529051526112c28161440e565b600060608201526112d68187878787614456565b60008281526003602090815260409182902083518155908301516001820155908201516002820180546001600160a01b0319166001600160a01b03909216919091178082556060840151849392909160ff60a01b1916600160a01b83600881111561133d57fe5b0217905550608082015180516003830180546001600160a01b0319166001600160a01b03909216919091178155602080830151805161138292600487019201906144e2565b506040820151805161139e9160028401916020909101906144e2565b50606082015180516113ba9160038401916020909101906144e2565b50608082015180516113d69160048401916020909101906144e2565b5060a0918201516005919091015582015180516009830180546001600160a01b0319166001600160a01b03909216919091178155602080830151805161142292600a87019201906144e2565b506040820151805161143e9160028401916020909101906144e2565b50505060c082015180518051600c84019161145e918391602001906144e2565b506020828101516001830155604083015160028301556060830151805161148b92600385019201906144e2565b50505060e082015180516010830180546001600160a01b0319166001600160a01b0390921691909117815560208083015180516114ce92601187019201906144e2565b50604082015180516114ea9160028401916020909101906144e2565b5050506101008201516013820180546001600160a01b0319166001600160a01b0390921691909117905561012082015180516115309160148401916020909101906144e2565b50505060008281526004602090815260408083208054600180820180845592865294849020865160159092020190815592850151938301939093558301516002820180546001600160a01b0319166001600160a01b03909216919091178082556060850151859392909160ff60a01b1916600160a01b8360088111156115b257fe5b0217905550608082015180516003830180546001600160a01b0319166001600160a01b0390921691909117815560208083015180516115f792600487019201906144e2565b50604082015180516116139160028401916020909101906144e2565b506060820151805161162f9160038401916020909101906144e2565b506080820151805161164b9160048401916020909101906144e2565b5060a0918201516005919091015582015180516009830180546001600160a01b0319166001600160a01b03909216919091178155602080830151805161169792600a87019201906144e2565b50604082015180516116b39160028401916020909101906144e2565b50505060c082015180518051600c8401916116d3918391602001906144e2565b506020828101516001830155604083015160028301556060830151805161170092600385019201906144e2565b50505060e082015180516010830180546001600160a01b0319166001600160a01b03909216919091178155602080830151805161174392601187019201906144e2565b506040820151805161175f9160028401916020909101906144e2565b5050506101008201516013820180546001600160a01b0319166001600160a01b0390921691909117905561012082015180516117a59160148401916020909101906144e2565b5050600180548101815560008054909101905550506040805183815290517fd29d8a68ca7c8c74be5579719d445aabfe230ed6e6a83aff475a663500eb76099181900360200190a150505050505050505050565b60006001600160a01b03821661180e57600080fd5b506001600160a01b03166000908152600560205260409020546301000000900460ff1690565b600081815260036020819052604090912001546001600160a01b031633811461185c57600080fd5b611865336120a8565b61186e57600080fd5b60008281526003602081815260408084206002808201805460ff60a01b19908116600160a11b17825560048652938720958552855460018181018089559789529590972083546015909802019687558483015494870194909455835490860180546001600160a01b0319166001600160a01b0390921691909117808255935494959194919360ff600160a01b938490041693919291169083600881111561191157fe5b02179055506003828101805491830180546001600160a01b0319166001600160a01b0390931692909217825560048085018054929392611967928601919060026000196001831615610100020190911604614560565b506002828101805461198c928481019291600019610100600183161502011604614560565b50600382018160030190805460018160011615610100020316600290046119b4929190614560565b50600482018160040190805460018160011615610100020316600290046119dc929190614560565b506005918201549101556009828101805491830180546001600160a01b0319166001600160a01b03909316929092178255600a8085018054929392611a37928601919060026000196001831615610100020190911604614560565b5060028281018054611a5c928481019291600019610100600183161502011604614560565b505050600c82810180549091830190611a8b908290849060026000196101006001841615020190911604614560565b50600182015481600101556002820154816002015560038201816003019080546001816001161561010002031660029004611ac7929190614560565b5050506010828101805491830180546001600160a01b0319166001600160a01b0390931692909217825560118085018054929392611b1b928601919060026000196001831615610100020190911604614560565b5060028281018054611b40928481019291600019610100600183161502011604614560565b50505060138281015490820180546001600160a01b0319166001600160a01b0390921691909117905560148083018054611b90928401919060026000196001831615610100020190911604614560565b50506040805185815290517f25727bef8a186dd95a062151451f2d651551b53124c18208d7653b1217ae31ba9350908190036020019150a15050565b826002600082815260036020526040902060020154600160a01b900460ff166008811115611bf657fe5b14611c0057600080fd5b6000848152600360205260409020600901546001600160a01b0316338114611c2757600080fd5b611c3033613f15565b611c3957600080fd5b60008581526003602090815260409091206002810180546001600160a01b031916331790558551611c7292600a909201918701906144e2565b5060008581526003602090815260409091208451611c9892600b909201918601906144e2565b5060008581526003602081815260408084206002808201805460ff60a01b19908116600360a01b17825560048652938720958552855460018181018089559789529590972083546015909802019687558483015494870194909455835490860180546001600160a01b0319166001600160a01b0390921691909117808255935494959194919360ff600160a01b9384900416939192911690836008811115611d3c57fe5b02179055506003828101805491830180546001600160a01b0319166001600160a01b0390931692909217825560048085018054929392611d92928601919060026000196001831615610100020190911604614560565b5060028281018054611db7928481019291600019610100600183161502011604614560565b5060038201816003019080546001816001161561010002031660029004611ddf929190614560565b5060048201816004019080546001816001161561010002031660029004611e07929190614560565b506005918201549101556009828101805491830180546001600160a01b0319166001600160a01b03909316929092178255600a8085018054929392611e62928601919060026000196001831615610100020190911604614560565b5060028281018054611e87928481019291600019610100600183161502011604614560565b505050600c82810180549091830190611eb6908290849060026000196101006001841615020190911604614560565b50600182015481600101556002820154816002015560038201816003019080546001816001161561010002031660029004611ef2929190614560565b5050506010828101805491830180546001600160a01b0319166001600160a01b0390931692909217825560118085018054929392611f46928601919060026000196001831615610100020190911604614560565b5060028281018054611f6b928481019291600019610100600183161502011604614560565b50505060138281015490820180546001600160a01b0319166001600160a01b0390921691909117905560148083018054611fbb928401919060026000196001831615610100020190911604614560565b50506040805188815290517fa22971300ba7d9ca2113cf57c3238cde86a32cfba0c31a13ad86a23bde3facf29350908190036020019150a15050505050565b60009081526004602052604090205490565b6001600160a01b03811661201f57600080fd5b612028816117f9565b1561203257600080fd5b6001600160a01b03166000908152600560205260409020805463ff00000019166301000000179055565b6001600160a01b03811661206f57600080fd5b61207881613f15565b1561208257600080fd5b6001600160a01b03166000908152600560205260409020805461ff001916610100179055565b60006001600160a01b0382166120bd57600080fd5b506001600160a01b031660009081526005602052604090205460ff1690565b60008381526003602052604081205481908190819060609081908190819061210357600080fd5b60008b815260036020908152604091829020825180840190935260078352661c1c9bd91d58dd60ca1b928201929092528b51908c01207f36a4a183f82db747ab399ca476ab84cc3def6abe3ac63748d03b4584af38d0571415612170575060008b81526003602052604090205b604080518082019091526007815266686973746f727960c81b6020918201528b51908c01207f5cb4ee416d23b95cd5367c15d6b361ec02394b3d48d629418b0e5e7eda67585814156121e75760008c815260046020526040902080548b9081106121d657fe5b906000526020600020906015020190505b8054600180830154600280850154600386015460048701805460408051602061010099841615999099026000190190921695909504601f810188900488028201880190955284815294956001600160a01b039384169593909216939092600589019260068a019260078b0192918691908301828280156122a85780601f1061227d576101008083540402835291602001916122a8565b820191906000526020600020905b81548152906001019060200180831161228b57829003601f168201915b5050865460408051602060026001851615610100026000190190941693909304601f8101849004840282018401909252818152959950889450925084019050828280156123365780601f1061230b57610100808354040283529160200191612336565b820191906000526020600020905b81548152906001019060200180831161231957829003601f168201915b5050855460408051602060026001851615610100026000190190941693909304601f8101849004840282018401909252818152959850879450925084019050828280156123c45780601f10612399576101008083540402835291602001916123c4565b820191906000526020600020905b8154815290600101906020018083116123a757829003601f168201915b5050845460408051602060026001851615610100026000190190941693909304601f8101849004840282018401909252818152959750869450925084019050828280156124525780601f1061242757610100808354040283529160200191612452565b820191906000526020600020905b81548152906001019060200180831161243557829003601f168201915b5050505050905098509850985098509850985098509850509397509397509397509397565b806006600082815260036020526040902060020154600160a01b900460ff1660088111156124a157fe5b146124ab57600080fd5b6000828152600360205260409020600201546001600160a01b03163381146124d257600080fd5b6000838152600360205260409020601001546001600160a01b03163381146124f957600080fd5b61250233613f4e565b61250b57600080fd5b60008481526003602081815260408084206002808201805460ff60a01b19908116600760a01b17825560048652938720958552855460018181018089559789529590972083546015909802019687558483015494870194909455835490860180546001600160a01b0319166001600160a01b0390921691909117808255935494959194919360ff600160a01b93849004169391929116908360088111156125ae57fe5b02179055506003828101805491830180546001600160a01b0319166001600160a01b0390931692909217825560048085018054929392612604928601919060026000196001831615610100020190911604614560565b5060028281018054612629928481019291600019610100600183161502011604614560565b5060038201816003019080546001816001161561010002031660029004612651929190614560565b5060048201816004019080546001816001161561010002031660029004612679929190614560565b506005918201549101556009828101805491830180546001600160a01b0319166001600160a01b03909316929092178255600a80850180549293926126d4928601919060026000196001831615610100020190911604614560565b50600282810180546126f9928481019291600019610100600183161502011604614560565b505050600c82810180549091830190612728908290849060026000196101006001841615020190911604614560565b50600182015481600101556002820154816002015560038201816003019080546001816001161561010002031660029004612764929190614560565b5050506010828101805491830180546001600160a01b0319166001600160a01b03909316929092178255601180850180549293926127b8928601919060026000196001831615610100020190911604614560565b50600282810180546127dd928481019291600019610100600183161502011604614560565b50505060138281015490820180546001600160a01b0319166001600160a01b039092169190911790556014808301805461282d928401919060026000196001831615610100020190911604614560565b50506040805187815290517f9a96442e96ac96ba57e48273f290bf3bb9c6b0b2c86843cc4bf2353119918fdf9350908190036020019150a150505050565b60008381526003602052604081205460609082908190839082908190839061289257600080fd5b60008b815260036020908152604091829020825180840190935260078352661c1c9bd91d58dd60ca1b928201929092528b51908c01207f36a4a183f82db747ab399ca476ab84cc3def6abe3ac63748d03b4584af38d05714156128ff575060008b81526003602052604090205b604080518082019091526007815266686973746f727960c81b6020918201528b51908c01207f5cb4ee416d23b95cd5367c15d6b361ec02394b3d48d629418b0e5e7eda67585814156129765760008c815260046020526040902080548b90811061296557fe5b906000526020600020906015020190505b6008810154600d820154600e8301546002808501546009860154600c870180546040805160206101006001851615026000190190931696909604601f810183900483028701830190915280865291969594600f8a0194600160a01b900460ff16936001600160a01b031692600a8b0192899190830182828015612a3a5780601f10612a0f57610100808354040283529160200191612a3a565b820191906000526020600020905b815481529060010190602001808311612a1d57829003601f168201915b5050875460408051602060026001851615610100026000190190941693909304601f8101849004840282018401909252818152959c5089945092508401905082828015612ac85780601f10612a9d57610100808354040283529160200191612ac8565b820191906000526020600020905b815481529060010190602001808311612aab57829003601f168201915b5050845460408051602060026001851615610100026000190190941693909304601f8101849004840282018401909252818152959950869450925084019050828280156124525780601f1061242757610100808354040283529160200191612452565b806003600082815260036020526040902060020154600160a01b900460ff166008811115612b5557fe5b14612b5f57600080fd5b612b68336117f9565b612ba35760405162461bcd60e51b81526004018080602001828103825260218152602001806146816021913960400191505060405180910390fd5b600082815260036020526040902054612bfc576040805162461bcd60e51b8152602060048201526016602482015275141c9bd91d58dd08191bd95cc81b9bdd08195e1a5cdd60521b604482015290519081900360640190fd5b60008281526003602081815260408084206013810180546001600160a01b031990811633179091556002808301805460ff60a01b19908116600160a21b1782556004875294882096865286546001818101808a55988a529690982084546015909902019788558584015495880195909555845490870180549092166001600160a01b0390911617808255935494959194919360ff600160a01b9384900416939192911690836008811115612cac57fe5b02179055506003828101805491830180546001600160a01b0319166001600160a01b0390931692909217825560048085018054929392612d02928601919060026000196001831615610100020190911604614560565b5060028281018054612d27928481019291600019610100600183161502011604614560565b5060038201816003019080546001816001161561010002031660029004612d4f929190614560565b5060048201816004019080546001816001161561010002031660029004612d77929190614560565b506005918201549101556009828101805491830180546001600160a01b0319166001600160a01b03909316929092178255600a8085018054929392612dd2928601919060026000196001831615610100020190911604614560565b5060028281018054612df7928481019291600019610100600183161502011604614560565b505050600c82810180549091830190612e26908290849060026000196101006001841615020190911604614560565b50600182015481600101556002820154816002015560038201816003019080546001816001161561010002031660029004612e62929190614560565b5050506010828101805491830180546001600160a01b0319166001600160a01b0390931692909217825560118085018054929392612eb6928601919060026000196001831615610100020190911604614560565b5060028281018054612edb928481019291600019610100600183161502011604614560565b50505060138281015490820180546001600160a01b0319166001600160a01b0390921691909117905560148083018054612f2b928401919060026000196001831615610100020190911604614560565b50506040518492507ffd054e59d299873fab61a3c67d86d3a139b75dcd5cd82894d8983fc5e2669c829150600090a25050565b806007600082815260036020526040902060020154600160a01b900460ff166008811115612f8857fe5b14612f9257600080fd5b6000828152600360205260409020601301546001600160a01b0316338114612fb957600080fd5b612fc2336117f9565b612fcb57600080fd5b6000838152600360208181526040808420600280820180546001600160a01b0319908116331760ff60a01b19908116600160a31b1783556004875294882096865286546001818101808a55988a529690982084546015909902019788558584015495880195909555805491870180549095166001600160a01b0390921691909117808555905494959194919360ff600160a01b938490041693909291169083600881111561307557fe5b02179055506003828101805491830180546001600160a01b0319166001600160a01b03909316929092178255600480850180549293926130cb928601919060026000196001831615610100020190911604614560565b50600282810180546130f0928481019291600019610100600183161502011604614560565b5060038201816003019080546001816001161561010002031660029004613118929190614560565b5060048201816004019080546001816001161561010002031660029004613140929190614560565b506005918201549101556009828101805491830180546001600160a01b0319166001600160a01b03909316929092178255600a808501805492939261319b928601919060026000196001831615610100020190911604614560565b50600282810180546131c0928481019291600019610100600183161502011604614560565b505050600c828101805490918301906131ef908290849060026000196101006001841615020190911604614560565b5060018201548160010155600282015481600201556003820181600301908054600181600116156101000203166002900461322b929190614560565b5050506010828101805491830180546001600160a01b0319166001600160a01b039093169290921782556011808501805492939261327f928601919060026000196001831615610100020190911604614560565b50600282810180546132a4928481019291600019610100600183161502011604614560565b50505060138281015490820180546001600160a01b0319166001600160a01b03909216919091179055601480830180546132f4928401919060026000196001831615610100020190911604614560565b50506040805186815290517f8a746d5b91a9a334d1abbeee7d031aac6d5c59ea6e982ac06aef4346cce5749e9350908190036020019150a1505050565b60008281526004602052604081208054600019810190811061334f57fe5b90600052602060002090601502019050818160140190805190602001906133779291906144e2565b50505050565b6001600160a01b03811661339057600080fd5b613399816120a8565b156133a357600080fd5b6001600160a01b03166000908152600560205260409020805460ff19166001179055565b826005600082815260036020526040902060020154600160a01b900460ff1660088111156133f157fe5b146133fb57600080fd5b61340433613f4e565b61340d57600080fd5b6000848152600360209081526040909120600281018054336001600160a01b0319918216811790925560108301805490911690911790558451613458926011909201918601906144e2565b506000848152600360209081526040909120835161347e926012909201918501906144e2565b5060008481526003602081815260408084206002808201805460ff60a01b19908116600360a11b17825560048652938720958552855460018181018089559789529590972083546015909802019687558483015494870194909455835490860180546001600160a01b0319166001600160a01b0390921691909117808255935494959194919360ff600160a01b938490041693919291169083600881111561352257fe5b02179055506003828101805491830180546001600160a01b0319166001600160a01b0390931692909217825560048085018054929392613578928601919060026000196001831615610100020190911604614560565b506002828101805461359d928481019291600019610100600183161502011604614560565b50600382018160030190805460018160011615610100020316600290046135c5929190614560565b50600482018160040190805460018160011615610100020316600290046135ed929190614560565b506005918201549101556009828101805491830180546001600160a01b0319166001600160a01b03909316929092178255600a8085018054929392613648928601919060026000196001831615610100020190911604614560565b506002828101805461366d928481019291600019610100600183161502011604614560565b505050600c8281018054909183019061369c908290849060026000196101006001841615020190911604614560565b506001820154816001015560028201548160020155600382018160030190805460018160011615610100020316600290046136d8929190614560565b5050506010828101805491830180546001600160a01b0319166001600160a01b039093169290921782556011808501805492939261372c928601919060026000196001831615610100020190911604614560565b5060028281018054613751928481019291600019610100600183161502011604614560565b50505060138281015490820180546001600160a01b0319166001600160a01b03909216919091179055601480830180546137a1928401919060026000196001831615610100020190911604614560565b50506040805187815290517fb6589947d486bf61c31a4e6d2e81d4d2c93e7832fdda27f2492009b4755c29ed9350908190036020019150a150505050565b60008381526003602052604081205460609190829081908390829061380357600080fd5b600089815260036020908152604091829020825180840190935260078352661c1c9bd91d58dd60ca1b928201929092528951908a01207f36a4a183f82db747ab399ca476ab84cc3def6abe3ac63748d03b4584af38d0571415613870575060008981526003602052604090205b604080518082019091526007815266686973746f727960c81b6020918201528951908a01207f5cb4ee416d23b95cd5367c15d6b361ec02394b3d48d629418b0e5e7eda67585814156138e75760008a81526004602052604090208054899081106138d657fe5b906000526020600020906015020190505b60108101546013820154600b8301805460408051602060026101006001861615026000190190941693909304601f810184900484028201840190925281815292946001600160a01b0390811694601188019460128901949290911692601489019288919083018282801561399c5780601f106139715761010080835404028352916020019161399c565b820191906000526020600020905b81548152906001019060200180831161397f57829003601f168201915b5050875460408051602060026001851615610100026000190190941693909304601f8101849004840282018401909252818152959b5089945092508401905082828015613a2a5780601f106139ff57610100808354040283529160200191613a2a565b820191906000526020600020905b815481529060010190602001808311613a0d57829003601f168201915b5050865460408051602060026001851615610100026000190190941693909304601f810184900484028201840190925281815295995088945092508401905082828015613ab85780601f10613a8d57610100808354040283529160200191613ab8565b820191906000526020600020905b815481529060010190602001808311613a9b57829003601f168201915b5050845460408051602060026001851615610100026000190190941693909304601f810184900484028201840190925281815295985086945092508401905082828015613b465780601f10613b1b57610100808354040283529160200191613b46565b820191906000526020600020905b815481529060010190602001808311613b2957829003601f168201915b505050505090509650965096509650965096505093975093979195509350565b8060008082815260036020526040902060020154600160a01b900460ff166008811115613b8f57fe5b14613b9957600080fd5b613ba233613f15565b613bab57600080fd5b6000828152600360208181526040808420600981018054336001600160a01b03199182161790915560028083018054600160a01b60ff60a01b19918216811783556004885295892097875287546001818101808b55998b529790992085546015909a02019889558685015496890196909655805491880180546001600160a01b03909316929093169190911780835590549596929592949284900460ff169391921690836008811115613c5a57fe5b02179055506003828101805491830180546001600160a01b0319166001600160a01b0390931692909217825560048085018054929392613cb0928601919060026000196001831615610100020190911604614560565b5060028281018054613cd5928481019291600019610100600183161502011604614560565b5060038201816003019080546001816001161561010002031660029004613cfd929190614560565b5060048201816004019080546001816001161561010002031660029004613d25929190614560565b506005918201549101556009828101805491830180546001600160a01b0319166001600160a01b03909316929092178255600a8085018054929392613d80928601919060026000196001831615610100020190911604614560565b5060028281018054613da5928481019291600019610100600183161502011604614560565b505050600c82810180549091830190613dd4908290849060026000196101006001841615020190911604614560565b50600182015481600101556002820154816002015560038201816003019080546001816001161561010002031660029004613e10929190614560565b5050506010828101805491830180546001600160a01b0319166001600160a01b0390931692909217825560118085018054929392613e64928601919060026000196001831615610100020190911604614560565b5060028281018054613e89928481019291600019610100600183161502011604614560565b50505060138281015490820180546001600160a01b0319166001600160a01b0390921691909117905560148083018054613ed9928401919060026000196001831615610100020190911604614560565b50506040805185815290517f112c8adc962c1de46b0ae9499cd428dc90feb4c13a4df0c69d7e5e27ab34ae879350908190036020019150a15050565b60006001600160a01b038216613f2a57600080fd5b506001600160a01b0316600090815260056020526040902054610100900460ff1690565b60006001600160a01b038216613f6357600080fd5b506001600160a01b031660009081526005602052604090205462010000900460ff1690565b600090815260036020526040902060020154600160a01b900460ff1690565b60008054600019908101825260046020526040909120805483928101908110613fcc57fe5b90600052602060002090601502016014019080519060200190613ff09291906144e2565b5050565b6000818152600360205260409020600201546001600160a01b031633811461401b57600080fd5b6000828152600360205260409020600901546001600160a01b031633811461404257600080fd5b61404b33613f15565b61405457600080fd5b60008381526003602081815260408084206002808201805460ff60a01b19908116600560a01b17825560048652938720958552855460018181018089559789529590972083546015909802019687558483015494870194909455835490860180546001600160a01b0319166001600160a01b0390921691909117808255935494959194919360ff600160a01b93849004169391929116908360088111156140f757fe5b02179055506003828101805491830180546001600160a01b0319166001600160a01b039093169290921782556004808501805492939261414d928601919060026000196001831615610100020190911604614560565b5060028281018054614172928481019291600019610100600183161502011604614560565b506003820181600301908054600181600116156101000203166002900461419a929190614560565b50600482018160040190805460018160011615610100020316600290046141c2929190614560565b506005918201549101556009828101805491830180546001600160a01b0319166001600160a01b03909316929092178255600a808501805492939261421d928601919060026000196001831615610100020190911604614560565b5060028281018054614242928481019291600019610100600183161502011604614560565b505050600c82810180549091830190614271908290849060026000196101006001841615020190911604614560565b506001820154816001015560028201548160020155600382018160030190805460018160011615610100020316600290046142ad929190614560565b5050506010828101805491830180546001600160a01b0319166001600160a01b0390931692909217825560118085018054929392614301928601919060026000196001831615610100020190911604614560565b5060028281018054614326928481019291600019610100600183161502011604614560565b50505060138281015490820180546001600160a01b0319166001600160a01b0390921691909117905560148083018054614376928401919060026000196001831615610100020190911604614560565b50506040805186815290517ff2452d569e5bc407d222a6bcad7d4bb8bac5fae64ce52fa183bd77e34e0cc1479350908190036020019150a1505050565b6000545b90565b6001600160a01b0381166143cd57600080fd5b6143d681613f4e565b156143e057600080fd5b6001600160a01b03166000908152600560205260409020805462ff0000191662010000179055565b60005481565b60a0810180516000908190528151606060209182018190529251604090810184905260e085018051849052805190920184905290510182905261010083015261012090910152565b60c09094018051939093528251602001919091528151604001525160600152565b604080516101408101825260008082526020820181905291810182905290606082019081526020016144a76145d5565b81526020016144b4614614565b81526020016144c161463e565b81526020016144ce614614565b815260006020820152606060409091015290565b828054600181600116156101000203166002900490600052602060002090601f016020900481019282601f1061452357805160ff1916838001178555614550565b82800160010185558215614550579182015b82811115614550578251825591602001919060010190614535565b5061455c929150614666565b5090565b828054600181600116156101000203166002900490600052602060002090601f016020900481019282601f106145995780548555614550565b8280016001018555821561455057600052602060002091601f016020900482015b828111156145505782548255916001019190600101906145ba565b6040518060c0016040528060006001600160a01b0316815260200160608152602001606081526020016060815260200160608152602001600081525090565b604051806060016040528060006001600160a01b0316815260200160608152602001606081525090565b6040518060800160405280606081526020016000815260200160008152602001606081525090565b6143b791905b8082111561455c576000815560010161466c56fe596f7520617265206e6f742061207265676973746572656420637573746f6d6572a265627a7a72315820e0953e2b654046863bcdab95f5bdcf9dcd95cb465f0cd0ab1e38cf9ffa4af4b764736f6c63430005100032",
  "source": "// SPDX-License-Identifier: MIT\r\npragma solidity >=0.4.21 <0.9.0;\r\n\r\nimport \"./Structure.sol\";\r\n\r\ncontract SupplyChain {\r\n    event ManufacturerAdded(address indexed _account);\r\n\r\n    //product code\r\n    uint256 public uid;\r\n    uint256 sku;\r\n\r\n    address owner;\r\n\r\n    mapping(uint256 => Structure.Product) products;\r\n    mapping(uint256 => Structure.ProductHistory) productHistory;\r\n    mapping(address => Structure.Roles) roles;\r\n\r\n    function hasManufacturerRole(address _account) public view returns (bool) {\r\n        require(_account != address(0));\r\n        return roles[_account].Manufacturer;\r\n    }\r\n\r\n    function addManufacturerRole(address _account) public {\r\n        require(_account != address(0));\r\n        require(!hasManufacturerRole(_account));\r\n\r\n        roles[_account].Manufacturer = true;\r\n    }\r\n\r\n    function hasThirdPartyRole(address _account) public view returns (bool) {\r\n        require(_account != address(0));\r\n        return roles[_account].ThirdParty;\r\n    }\r\n\r\n    function addThirdPartyRole(address _account) public {\r\n        require(_account != address(0));\r\n        require(!hasThirdPartyRole(_account));\r\n\r\n        roles[_account].ThirdParty = true;\r\n    }\r\n\r\n    function hasDeliveryHubRole(address _account) public view returns (bool) {\r\n        require(_account != address(0));\r\n        return roles[_account].DeliveryHub;\r\n    }\r\n\r\n    function addDeliveryHubRole(address _account) public {\r\n        require(_account != address(0));\r\n        require(!hasDeliveryHubRole(_account));\r\n\r\n        roles[_account].DeliveryHub = true;\r\n    }\r\n\r\n    function hasCustomerRole(address _account) public view returns (bool) {\r\n        require(_account != address(0));\r\n        return roles[_account].Customer;\r\n    }\r\n\r\n    function addCustomerRole(address _account) public {\r\n        require(_account != address(0));\r\n        require(!hasCustomerRole(_account));\r\n\r\n        roles[_account].Customer = true;\r\n    }\r\n\r\n    constructor() public payable {\r\n        owner = msg.sender;\r\n        sku = 1;\r\n        uid = 1;\r\n    }\r\n\r\n    event Manufactured(uint256 uid);\r\n    event PurchasedByThirdParty(uint256 uid);\r\n    event ShippedByManufacturer(uint256 uid);\r\n    event ReceivedByThirdParty(uint256 uid);\r\n   event PurchasedByCustomer(uint256 indexed uid);\r\n    event ShippedByThirdParty(uint256 uid);\r\n    event ReceivedByDeliveryHub(uint256 uid);\r\n    event ShippedByDeliveryHub(uint256 uid);\r\n    event ReceivedByCustomer(uint256 uid);\r\n\r\n    modifier verifyAddress(address add) {\r\n        require(msg.sender == add);\r\n        _;\r\n    }\r\n\r\n    modifier manufactured(uint256 _uid) {\r\n        require(products[_uid].productState == Structure.State.Manufactured);\r\n        _;\r\n    }\r\n\r\n    modifier shippedByManufacturer(uint256 _uid) {\r\n        require(\r\n            products[_uid].productState == Structure.State.ShippedByManufacturer\r\n        );\r\n        _;\r\n    }\r\n\r\n    modifier receivedByThirdParty(uint256 _uid) {\r\n        require(\r\n            products[_uid].productState == Structure.State.ReceivedByThirdParty\r\n        );\r\n        _;\r\n    }\r\n\r\n    modifier purchasedByCustomer(uint256 _uid) {\r\n        require(\r\n            products[_uid].productState == Structure.State.PurchasedByCustomer\r\n        );\r\n        _;\r\n    }\r\n\r\n    modifier shippedByThirdParty(uint256 _uid) {\r\n        require(\r\n            products[_uid].productState == Structure.State.ShippedByThirdParty\r\n        );\r\n        _;\r\n    }\r\n\r\n    modifier receivedByDeliveryHub(uint256 _uid) {\r\n        require(\r\n            products[_uid].productState == Structure.State.ReceivedByDeliveryHub\r\n        );\r\n        _;\r\n    }\r\n\r\n    modifier shippedByDeliveryHub(uint256 _uid) {\r\n        require(\r\n            products[_uid].productState == Structure.State.ShippedByDeliveryHub\r\n        );\r\n        _;\r\n    }\r\n\r\n    modifier receivedByCustomer(uint256 _uid) {\r\n        require(\r\n            products[_uid].productState == Structure.State.ReceivedByCustomer\r\n        );\r\n        _;\r\n    }\r\n\r\n    function manufactureEmptyInitialize(Structure.Product memory product)\r\n        internal\r\n        pure\r\n    {\r\n        address thirdParty;\r\n        string memory transaction;\r\n        string memory thirdPartyLongitude;\r\n        string memory thirdPartyLatitude;\r\n\r\n        address deliveryHub;\r\n        string memory deliveryHubLongitude;\r\n        string memory deliveryHubLatitude;\r\n        address customer;\r\n\r\n        product.thirdparty.thirdParty = thirdParty;\r\n        product.thirdparty.thirdPartyLongitude = thirdPartyLongitude;\r\n        product.thirdparty.thirdPartyLatitude = thirdPartyLatitude;\r\n\r\n        product.deliveryhub.deliveryHub = deliveryHub;\r\n        product.deliveryhub.deliveryHubLongitude = deliveryHubLongitude;\r\n        product.deliveryhub.deliveryHubLatitude = deliveryHubLatitude;\r\n\r\n        product.customer = customer;\r\n        product.transaction = transaction;\r\n    }\r\n\r\n    function manufactureProductInitialize(\r\n        Structure.Product memory product,\r\n        string memory productName,\r\n        uint256 productCode,\r\n        uint256 productPrice,\r\n        string memory productCategory\r\n    ) internal pure {\r\n        product.productdet.productName = productName;\r\n        product.productdet.productCode = productCode;\r\n        product.productdet.productPrice = productPrice;\r\n        product.productdet.productCategory = productCategory;\r\n    }\r\n\r\n    ///@dev STEP 1 : Manufactured a product.\r\n    function manufactureProduct(\r\n        string memory manufacturerName,\r\n        string memory manufacturerDetails,\r\n        string memory manufacturerLongitude,\r\n        string memory manufacturerLatitude,\r\n        string memory productName,\r\n        uint256 productCode,\r\n        uint256 productPrice,\r\n        string memory productCategory\r\n    ) public {\r\n        require(hasManufacturerRole(msg.sender));\r\n        uint256 _uid = uid;\r\n        Structure.Product memory product;\r\n        product.sku = sku;\r\n        product.uid = _uid;\r\n        product.manufacturer.manufacturerName = manufacturerName;\r\n        product.manufacturer.manufacturerDetails = manufacturerDetails;\r\n        product.manufacturer.manufacturerLongitude = manufacturerLongitude;\r\n        product.manufacturer.manufacturerLatitude = manufacturerLatitude;\r\n        product.manufacturer.manufacturedDate = block.timestamp;\r\n\r\n        product.owner = msg.sender;\r\n        product.manufacturer.manufacturer = msg.sender;\r\n\r\n        manufactureEmptyInitialize(product);\r\n\r\n        product.productState = Structure.State.Manufactured;\r\n\r\n        manufactureProductInitialize(\r\n            product,\r\n            productName,\r\n            productCode,\r\n            productPrice,\r\n            productCategory\r\n        );\r\n\r\n        products[_uid] = product;\r\n\r\n        productHistory[_uid].history.push(product);\r\n\r\n        sku++;\r\n        uid = uid + 1;\r\n\r\n        emit Manufactured(_uid);\r\n    }\r\n\r\n    ///@dev STEP 2 : Purchase of manufactured product by Third Party.\r\n    function purchaseByThirdParty(uint256 _uid) public manufactured(_uid) {\r\n        require(hasThirdPartyRole(msg.sender));\r\n        products[_uid].thirdparty.thirdParty = msg.sender;\r\n        products[_uid].productState = Structure.State.PurchasedByThirdParty;\r\n        productHistory[_uid].history.push(products[_uid]);\r\n\r\n        emit PurchasedByThirdParty(_uid);\r\n    }\r\n\r\n    ///@dev STEP 3 : Shipping of purchased product to Third Party.\r\n    function shipToThirdParty(uint256 _uid)\r\n        public\r\n        verifyAddress(products[_uid].manufacturer.manufacturer)\r\n    {\r\n        require(hasManufacturerRole(msg.sender));\r\n        products[_uid].productState = Structure.State.ShippedByManufacturer;\r\n        productHistory[_uid].history.push(products[_uid]);\r\n\r\n        emit ShippedByManufacturer(_uid);\r\n    }\r\n\r\n    ///@dev STEP 4 : Received the purchased product shipped by Manufacturer.\r\n    function receiveByThirdParty(\r\n        uint256 _uid,\r\n        string memory thirdPartyLongitude,\r\n        string memory thirdPartyLatitude\r\n    )\r\n        public\r\n        shippedByManufacturer(_uid)\r\n        verifyAddress(products[_uid].thirdparty.thirdParty)\r\n    {\r\n        require(hasThirdPartyRole(msg.sender));\r\n        products[_uid].owner = msg.sender;\r\n        products[_uid].thirdparty.thirdPartyLongitude = thirdPartyLongitude;\r\n        products[_uid].thirdparty.thirdPartyLatitude = thirdPartyLatitude;\r\n        products[_uid].productState = Structure.State.ReceivedByThirdParty;\r\n        productHistory[_uid].history.push(products[_uid]);\r\n\r\n        emit ReceivedByThirdParty(_uid);\r\n    }\r\n\r\n    ///@dev STEP 5 : Purchase of a product at third party by Customer.\r\n    function purchaseByCustomer(uint256 _uid)\r\n    public\r\n    receivedByThirdParty(_uid)  \r\n{\r\n    require(hasCustomerRole(msg.sender), \"You are not a registered customer\");\r\n    require(products[_uid].uid != 0, \"Product does not exist\");\r\n    \r\n    // Change product ownership to customer\r\n    products[_uid].customer = msg.sender;\r\n    products[_uid].productState = Structure.State.PurchasedByCustomer;\r\n    \r\n    // Update product history\r\n    productHistory[_uid].history.push(products[_uid]);\r\n\r\n    emit PurchasedByCustomer(_uid);\r\n}\r\n\r\n    \r\n\r\n    ///@dev STEP 7 : Shipping of product by third party purchased by customer.\r\n    function shipByThirdParty(uint256 _uid)\r\n        public\r\n        verifyAddress(products[_uid].owner)\r\n        verifyAddress(products[_uid].thirdparty.thirdParty)\r\n    {\r\n        require(hasThirdPartyRole(msg.sender));\r\n        products[_uid].productState = Structure.State.ShippedByThirdParty;\r\n        productHistory[_uid].history.push(products[_uid]);\r\n\r\n        emit ShippedByThirdParty(_uid);\r\n    }\r\n\r\n    ///@dev STEP 8 : Receiveing of product by delivery hub purchased by customer.\r\n    function receiveByDeliveryHub(\r\n        uint256 _uid,\r\n        string memory deliveryHubLongitude,\r\n        string memory deliveryHubLatitude\r\n    ) public shippedByThirdParty(_uid) {\r\n        require(hasDeliveryHubRole(msg.sender));\r\n        products[_uid].owner = msg.sender;\r\n        products[_uid].deliveryhub.deliveryHub = msg.sender;\r\n        products[_uid].deliveryhub.deliveryHubLongitude = deliveryHubLongitude;\r\n        products[_uid].deliveryhub.deliveryHubLatitude = deliveryHubLatitude;\r\n        products[_uid].productState = Structure.State.ReceivedByDeliveryHub;\r\n        productHistory[_uid].history.push(products[_uid]);\r\n\r\n        emit ReceivedByDeliveryHub(_uid);\r\n    }\r\n\r\n    ///@dev STEP 9 : Shipping of product by delivery hub purchased by customer.\r\n    function shipByDeliveryHub(uint256 _uid)\r\n        public\r\n        receivedByDeliveryHub(_uid)\r\n        verifyAddress(products[_uid].owner)\r\n        verifyAddress(products[_uid].deliveryhub.deliveryHub)\r\n    {\r\n        require(hasDeliveryHubRole(msg.sender));\r\n        products[_uid].productState = Structure.State.ShippedByDeliveryHub;\r\n        productHistory[_uid].history.push(products[_uid]);\r\n\r\n        emit ShippedByDeliveryHub(_uid);\r\n    }\r\n\r\n    ///@dev STEP 10 : Shipping of product by delivery hub purchased by customer.\r\n    function receiveByCustomer(uint256 _uid)\r\n        public\r\n        shippedByDeliveryHub(_uid)\r\n        verifyAddress(products[_uid].customer)\r\n    {\r\n        require(hasCustomerRole(msg.sender));\r\n        products[_uid].owner = msg.sender;\r\n        products[_uid].productState = Structure.State.ReceivedByCustomer;\r\n        productHistory[_uid].history.push(products[_uid]);\r\n\r\n        emit ReceivedByCustomer(_uid);\r\n    }\r\n\r\n    ///@dev Fetch product\r\n    function fetchProductPart1(\r\n        uint256 _uid,\r\n        string memory _type,\r\n        uint256 i\r\n    )\r\n        public\r\n        view\r\n        returns (\r\n            uint256,\r\n            uint256,\r\n            address,\r\n            address,\r\n            string memory,\r\n            string memory,\r\n            string memory,\r\n            string memory\r\n        )\r\n    {\r\n        require(products[_uid].uid != 0);\r\n        Structure.Product storage product = products[_uid];\r\n        if (keccak256(bytes(_type)) == keccak256(bytes(\"product\"))) {\r\n            product = products[_uid];\r\n        }\r\n        if (keccak256(bytes(_type)) == keccak256(bytes(\"history\"))) {\r\n            product = productHistory[_uid].history[i];\r\n        }\r\n        return (\r\n            product.uid,\r\n            product.sku,\r\n            product.owner,\r\n            product.manufacturer.manufacturer,\r\n            product.manufacturer.manufacturerName,\r\n            product.manufacturer.manufacturerDetails,\r\n            product.manufacturer.manufacturerLongitude,\r\n            product.manufacturer.manufacturerLatitude\r\n        );\r\n    }\r\n\r\n    ///@dev Fetch product\r\n    function fetchProductPart2(\r\n        uint256 _uid,\r\n        string memory _type,\r\n        uint256 i\r\n    )\r\n        public\r\n        view\r\n        returns (\r\n            uint256,\r\n            string memory,\r\n            uint256,\r\n            uint256,\r\n            string memory,\r\n            Structure.State,\r\n            address,\r\n            string memory\r\n        )\r\n    {\r\n        require(products[_uid].uid != 0);\r\n        Structure.Product storage product = products[_uid];\r\n        if (keccak256(bytes(_type)) == keccak256(bytes(\"product\"))) {\r\n            product = products[_uid];\r\n        }\r\n        if (keccak256(bytes(_type)) == keccak256(bytes(\"history\"))) {\r\n            product = productHistory[_uid].history[i];\r\n        }\r\n        return (\r\n            product.manufacturer.manufacturedDate,\r\n            product.productdet.productName,\r\n            product.productdet.productCode,\r\n            product.productdet.productPrice,\r\n            product.productdet.productCategory,\r\n            product.productState,\r\n            product.thirdparty.thirdParty,\r\n            product.thirdparty.thirdPartyLongitude\r\n        );\r\n    }\r\n\r\n    function fetchProductPart3(\r\n        uint256 _uid,\r\n        string memory _type,\r\n        uint256 i\r\n    )\r\n        public\r\n        view\r\n        returns (\r\n            string memory,\r\n            address,\r\n            string memory,\r\n            string memory,\r\n            address,\r\n            string memory\r\n        )\r\n    {\r\n        require(products[_uid].uid != 0);\r\n        Structure.Product storage product = products[_uid];\r\n        if (keccak256(bytes(_type)) == keccak256(bytes(\"product\"))) {\r\n            product = products[_uid];\r\n        }\r\n        if (keccak256(bytes(_type)) == keccak256(bytes(\"history\"))) {\r\n            product = productHistory[_uid].history[i];\r\n        }\r\n        return (\r\n            product.thirdparty.thirdPartyLatitude,\r\n            product.deliveryhub.deliveryHub,\r\n            product.deliveryhub.deliveryHubLongitude,\r\n            product.deliveryhub.deliveryHubLatitude,\r\n            product.customer,\r\n            product.transaction\r\n        );\r\n    }\r\n\r\n    function fetchProductCount() public view returns (uint256) {\r\n        return uid;\r\n    }\r\n\r\n    function fetchProductHistoryLength(uint256 _uid)\r\n        public\r\n        view\r\n        returns (uint256)\r\n    {\r\n        return productHistory[_uid].history.length;\r\n    }\r\n\r\n    function fetchProductState(uint256 _uid)\r\n        public\r\n        view\r\n        returns (Structure.State)\r\n    {\r\n        return products[_uid].productState;\r\n    }\r\n\r\n    function setTransactionHashOnManufacture(string memory tran) public {\r\n        productHistory[uid - 1].history[\r\n            productHistory[uid - 1].history.length - 1\r\n        ]\r\n            .transaction = tran;\r\n    }\r\n\r\n    function setTransactionHash(uint256 _uid, string memory tran) public {\r\n        Structure.Product storage p =\r\n            productHistory[_uid].history[\r\n                productHistory[_uid].history.length - 1\r\n            ];\r\n        p.transaction = tran;\r\n    }\r\n}\r\n",
  "sourcePath": "C:\\Users\\Pujitha Balaga\\Desktop\\SCM PROJECT\\Code_SCM\\contracts\\SupplyChain.sol",
  "compiler": {
    "name": "solc",
    "version": "0.5.16+commit.9c3226ce.Emscripten.clang"
  },
  "schemaVersion": "3.4.16",
  "updatedAt": "2025-02-25T08:27:56.139Z",
  "networkType": "ethereum",
  "devdoc": {
    "methods": {
      "fetchProductPart1(uint256,string,uint256)": {
        "details": "Fetch product"
      },
      "fetchProductPart2(uint256,string,uint256)": {
        "details": "Fetch product"
      },
      "manufactureProduct(string,string,string,string,string,uint256,uint256,string)": {
        "details": "STEP 1 : Manufactured a product."
      },
      "purchaseByCustomer(uint256)": {
        "details": "STEP 5 : Purchase of a product at third party by Customer."
      },
      "purchaseByThirdParty(uint256)": {
        "details": "STEP 2 : Purchase of manufactured product by Third Party."
      },
      "receiveByCustomer(uint256)": {
        "details": "STEP 10 : Shipping of product by delivery hub purchased by customer."
      },
      "receiveByDeliveryHub(uint256,string,string)": {
        "details": "STEP 8 : Receiveing of product by delivery hub purchased by customer."
      },
      "receiveByThirdParty(uint256,string,string)": {
        "details": "STEP 4 : Received the purchased product shipped by Manufacturer."
      },
      "shipByDeliveryHub(uint256)": {
        "details": "STEP 9 : Shipping of product by delivery hub purchased by customer."
      },
      "shipByThirdParty(uint256)": {
        "details": "STEP 7 : Shipping of product by third party purchased by customer."
      },
      "shipToThirdParty(uint256)": {
        "details": "STEP 3 : Shipping of purchased product to Third Party."
      }
    }
  },
  "userdoc": {
    "methods": {}
  }
}